{
  "_format": "hh-sol-artifact-1",
  "contractName": "TokenizedBallot",
  "sourceName": "contracts/TokenizedBallot.sol",
  "abi": [
    {
      "inputs": [
        {
          "internalType": "bytes32[]",
          "name": "proposalNames",
          "type": "bytes32[]"
        },
        {
          "internalType": "address",
          "name": "_tokenContract",
          "type": "address"
        }
      ],
      "stateMutability": "nonpayable",
      "type": "constructor"
    },
    {
      "inputs": [
        {
          "internalType": "uint256",
          "name": "",
          "type": "uint256"
        }
      ],
      "name": "proposals",
      "outputs": [
        {
          "internalType": "bytes32",
          "name": "name",
          "type": "bytes32"
        },
        {
          "internalType": "uint256",
          "name": "voteCount",
          "type": "uint256"
        }
      ],
      "stateMutability": "view",
      "type": "function"
    },
    {
      "inputs": [],
      "name": "targetBlockNumber",
      "outputs": [
        {
          "internalType": "uint256",
          "name": "",
          "type": "uint256"
        }
      ],
      "stateMutability": "view",
      "type": "function"
    },
    {
      "inputs": [],
      "name": "tokenContract",
      "outputs": [
        {
          "internalType": "contract IMyVotingToken",
          "name": "",
          "type": "address"
        }
      ],
      "stateMutability": "view",
      "type": "function"
    },
    {
      "inputs": [
        {
          "internalType": "uint256",
          "name": "proposal",
          "type": "uint256"
        },
        {
          "internalType": "uint256",
          "name": "amount",
          "type": "uint256"
        }
      ],
      "name": "vote",
      "outputs": [],
      "stateMutability": "nonpayable",
      "type": "function"
    },
    {
      "inputs": [
        {
          "internalType": "address",
          "name": "account",
          "type": "address"
        }
      ],
      "name": "votingPower",
      "outputs": [
        {
          "internalType": "uint256",
          "name": "",
          "type": "uint256"
        }
      ],
      "stateMutability": "view",
      "type": "function"
    },
    {
      "inputs": [
        {
          "internalType": "address",
          "name": "",
          "type": "address"
        }
      ],
      "name": "votingPowerSpent",
      "outputs": [
        {
          "internalType": "uint256",
          "name": "",
          "type": "uint256"
        }
      ],
      "stateMutability": "view",
      "type": "function"
    },
    {
      "inputs": [],
      "name": "winnerName",
      "outputs": [
        {
          "internalType": "bytes32",
          "name": "winnerName_",
          "type": "bytes32"
        }
      ],
      "stateMutability": "view",
      "type": "function"
    },
    {
      "inputs": [],
      "name": "winningProposal",
      "outputs": [
        {
          "internalType": "uint256",
          "name": "winningProposal_",
          "type": "uint256"
        }
      ],
      "stateMutability": "view",
      "type": "function"
    }
  ],
  "bytecode": "0x60806040523480156200001157600080fd5b5060405162000dab38038062000dab833981810160405281019062000037919062000347565b806000806101000a81548173ffffffffffffffffffffffffffffffffffffffff021916908373ffffffffffffffffffffffffffffffffffffffff1602179055504360028190555060005b8251811015620001155760016040518060400160405280858481518110620000ae57620000ad620003ad565b5b60200260200101518152602001600081525090806001815401808255809150506001900390600052602060002090600202016000909190919091506000820151816000015560208201518160010155505080806200010c9062000415565b91505062000081565b50505062000462565b6000604051905090565b600080fd5b600080fd5b600080fd5b6000601f19601f8301169050919050565b7f4e487b7100000000000000000000000000000000000000000000000000000000600052604160045260246000fd5b620001828262000137565b810181811067ffffffffffffffff82111715620001a457620001a362000148565b5b80604052505050565b6000620001b96200011e565b9050620001c7828262000177565b919050565b600067ffffffffffffffff821115620001ea57620001e962000148565b5b602082029050602081019050919050565b600080fd5b6000819050919050565b620002158162000200565b81146200022157600080fd5b50565b60008151905062000235816200020a565b92915050565b6000620002526200024c84620001cc565b620001ad565b90508083825260208201905060208402830185811115620002785762000277620001fb565b5b835b81811015620002a5578062000290888262000224565b8452602084019350506020810190506200027a565b5050509392505050565b600082601f830112620002c757620002c662000132565b5b8151620002d98482602086016200023b565b91505092915050565b600073ffffffffffffffffffffffffffffffffffffffff82169050919050565b60006200030f82620002e2565b9050919050565b620003218162000302565b81146200032d57600080fd5b50565b600081519050620003418162000316565b92915050565b6000806040838503121562000361576200036062000128565b5b600083015167ffffffffffffffff8111156200038257620003816200012d565b5b6200039085828601620002af565b9250506020620003a38582860162000330565b9150509250929050565b7f4e487b7100000000000000000000000000000000000000000000000000000000600052603260045260246000fd5b7f4e487b7100000000000000000000000000000000000000000000000000000000600052601160045260246000fd5b6000819050919050565b600062000422826200040b565b91507fffffffffffffffffffffffffffffffffffffffffffffffffffffffffffffffff8203620004575762000456620003dc565b5b600182019050919050565b61093980620004726000396000f3fe608060405234801561001057600080fd5b50600436106100885760003560e01c8063a72003511161005b578063a720035114610118578063b384abef14610148578063c07473f614610164578063e2ba53f01461019457610088565b8063013cf08b1461008d5780632a8cd29e146100be57806355a373d6146100dc578063609ff1bd146100fa575b600080fd5b6100a760048036038101906100a291906104ed565b6101b2565b6040516100b5929190610542565b60405180910390f35b6100c66101e6565b6040516100d3919061056b565b60405180910390f35b6100e46101ec565b6040516100f19190610605565b60405180910390f35b610102610210565b60405161010f919061056b565b60405180910390f35b610132600480360381019061012d919061065e565b610298565b60405161013f919061056b565b60405180910390f35b610162600480360381019061015d919061068b565b6102b0565b005b61017e6004803603810190610179919061065e565b610391565b60405161018b919061056b565b60405180910390f35b61019c61047e565b6040516101a991906106cb565b60405180910390f35b600181815481106101c257600080fd5b90600052602060002090600202016000915090508060000154908060010154905082565b60025481565b60008054906101000a900473ffffffffffffffffffffffffffffffffffffffff1681565b6000806000905060005b60018054905081101561029357816001828154811061023c5761023b6106e6565b5b90600052602060002090600202016001015411156102805760018181548110610268576102676106e6565b5b90600052602060002090600202016001015491508092505b808061028b90610744565b91505061021a565b505090565b60036020528060005260406000206000915090505481565b806102ba33610391565b10156102fb576040517f08c379a00000000000000000000000000000000000000000000000000000000081526004016102f29061080f565b60405180910390fd5b80600360003373ffffffffffffffffffffffffffffffffffffffff1673ffffffffffffffffffffffffffffffffffffffff168152602001908152602001600020600082825461034a919061082f565b925050819055508060018381548110610366576103656106e6565b5b90600052602060002090600202016001016000828254610386919061082f565b925050819055505050565b6000600360008373ffffffffffffffffffffffffffffffffffffffff1673ffffffffffffffffffffffffffffffffffffffff1681526020019081526020016000205460008054906101000a900473ffffffffffffffffffffffffffffffffffffffff1673ffffffffffffffffffffffffffffffffffffffff166370a08231846040518263ffffffff1660e01b815260040161042c9190610872565b602060405180830381865afa158015610449573d6000803e3d6000fd5b505050506040513d601f19601f8201168201806040525081019061046d91906108a2565b61047791906108cf565b9050919050565b6000600161048a610210565b8154811061049b5761049a6106e6565b5b906000526020600020906002020160000154905090565b600080fd5b6000819050919050565b6104ca816104b7565b81146104d557600080fd5b50565b6000813590506104e7816104c1565b92915050565b600060208284031215610503576105026104b2565b5b6000610511848285016104d8565b91505092915050565b6000819050919050565b61052d8161051a565b82525050565b61053c816104b7565b82525050565b60006040820190506105576000830185610524565b6105646020830184610533565b9392505050565b60006020820190506105806000830184610533565b92915050565b600073ffffffffffffffffffffffffffffffffffffffff82169050919050565b6000819050919050565b60006105cb6105c66105c184610586565b6105a6565b610586565b9050919050565b60006105dd826105b0565b9050919050565b60006105ef826105d2565b9050919050565b6105ff816105e4565b82525050565b600060208201905061061a60008301846105f6565b92915050565b600061062b82610586565b9050919050565b61063b81610620565b811461064657600080fd5b50565b60008135905061065881610632565b92915050565b600060208284031215610674576106736104b2565b5b600061068284828501610649565b91505092915050565b600080604083850312156106a2576106a16104b2565b5b60006106b0858286016104d8565b92505060206106c1858286016104d8565b9150509250929050565b60006020820190506106e06000830184610524565b92915050565b7f4e487b7100000000000000000000000000000000000000000000000000000000600052603260045260246000fd5b7f4e487b7100000000000000000000000000000000000000000000000000000000600052601160045260246000fd5b600061074f826104b7565b91507fffffffffffffffffffffffffffffffffffffffffffffffffffffffffffffffff820361078157610780610715565b5b600182019050919050565b600082825260208201905092915050565b7f546f6b656e697a656442616c6c6f743a20766f74696e67206d6f72652074686160008201527f6e20616c6c6f636174656420766f74696e6720706f7765720000000000000000602082015250565b60006107f960388361078c565b91506108048261079d565b604082019050919050565b60006020820190508181036000830152610828816107ec565b9050919050565b600061083a826104b7565b9150610845836104b7565b925082820190508082111561085d5761085c610715565b5b92915050565b61086c81610620565b82525050565b60006020820190506108876000830184610863565b92915050565b60008151905061089c816104c1565b92915050565b6000602082840312156108b8576108b76104b2565b5b60006108c68482850161088d565b91505092915050565b60006108da826104b7565b91506108e5836104b7565b92508282039050818111156108fd576108fc610715565b5b9291505056fea2646970667358221220a7c1f0e4c08e3c14795ffaaafa3dad62b1f93a030ba53ab68a269104839b204064736f6c63430008120033",
  "linkReferences": {},
  "deployedLinkReferences": {}
}